{
  "contractName": "StarNotary",
  "abi": [
    {
      "constant": true,
      "inputs": [
        {
          "name": "interfaceId",
          "type": "bytes4"
        }
      ],
      "name": "supportsInterface",
      "outputs": [
        {
          "name": "",
          "type": "bool"
        }
      ],
      "payable": false,
      "stateMutability": "view",
      "type": "function"
    },
    {
      "constant": true,
      "inputs": [
        {
          "name": "tokenId",
          "type": "uint256"
        }
      ],
      "name": "getApproved",
      "outputs": [
        {
          "name": "",
          "type": "address"
        }
      ],
      "payable": false,
      "stateMutability": "view",
      "type": "function"
    },
    {
      "constant": false,
      "inputs": [
        {
          "name": "to",
          "type": "address"
        },
        {
          "name": "tokenId",
          "type": "uint256"
        }
      ],
      "name": "approve",
      "outputs": [],
      "payable": false,
      "stateMutability": "nonpayable",
      "type": "function"
    },
    {
      "constant": true,
      "inputs": [
        {
          "name": "",
          "type": "uint256"
        }
      ],
      "name": "tokenIdToStarInfo",
      "outputs": [
        {
          "name": "name",
          "type": "string"
        },
        {
          "name": "story",
          "type": "string"
        },
        {
          "name": "dec",
          "type": "string"
        },
        {
          "name": "ra",
          "type": "string"
        },
        {
          "name": "cent",
          "type": "string"
        },
        {
          "name": "mag",
          "type": "string"
        }
      ],
      "payable": false,
      "stateMutability": "view",
      "type": "function"
    },
    {
      "constant": false,
      "inputs": [
        {
          "name": "from",
          "type": "address"
        },
        {
          "name": "to",
          "type": "address"
        },
        {
          "name": "tokenId",
          "type": "uint256"
        }
      ],
      "name": "transferFrom",
      "outputs": [],
      "payable": false,
      "stateMutability": "nonpayable",
      "type": "function"
    },
    {
      "constant": true,
      "inputs": [
        {
          "name": "",
          "type": "bytes32"
        }
      ],
      "name": "sfdsdfs",
      "outputs": [
        {
          "name": "name",
          "type": "string"
        },
        {
          "name": "story",
          "type": "string"
        },
        {
          "name": "dec",
          "type": "string"
        },
        {
          "name": "ra",
          "type": "string"
        },
        {
          "name": "cent",
          "type": "string"
        },
        {
          "name": "mag",
          "type": "string"
        }
      ],
      "payable": false,
      "stateMutability": "view",
      "type": "function"
    },
    {
      "constant": false,
      "inputs": [
        {
          "name": "from",
          "type": "address"
        },
        {
          "name": "to",
          "type": "address"
        },
        {
          "name": "tokenId",
          "type": "uint256"
        }
      ],
      "name": "safeTransferFrom",
      "outputs": [],
      "payable": false,
      "stateMutability": "nonpayable",
      "type": "function"
    },
    {
      "constant": true,
      "inputs": [
        {
          "name": "tokenId",
          "type": "uint256"
        }
      ],
      "name": "ownerOf",
      "outputs": [
        {
          "name": "",
          "type": "address"
        }
      ],
      "payable": false,
      "stateMutability": "view",
      "type": "function"
    },
    {
      "constant": true,
      "inputs": [
        {
          "name": "",
          "type": "uint256"
        }
      ],
      "name": "starCollection",
      "outputs": [
        {
          "name": "",
          "type": "uint256"
        }
      ],
      "payable": false,
      "stateMutability": "view",
      "type": "function"
    },
    {
      "constant": true,
      "inputs": [
        {
          "name": "owner",
          "type": "address"
        }
      ],
      "name": "balanceOf",
      "outputs": [
        {
          "name": "",
          "type": "uint256"
        }
      ],
      "payable": false,
      "stateMutability": "view",
      "type": "function"
    },
    {
      "constant": false,
      "inputs": [
        {
          "name": "to",
          "type": "address"
        },
        {
          "name": "approved",
          "type": "bool"
        }
      ],
      "name": "setApprovalForAll",
      "outputs": [],
      "payable": false,
      "stateMutability": "nonpayable",
      "type": "function"
    },
    {
      "constant": false,
      "inputs": [
        {
          "name": "from",
          "type": "address"
        },
        {
          "name": "to",
          "type": "address"
        },
        {
          "name": "tokenId",
          "type": "uint256"
        },
        {
          "name": "_data",
          "type": "bytes"
        }
      ],
      "name": "safeTransferFrom",
      "outputs": [],
      "payable": false,
      "stateMutability": "nonpayable",
      "type": "function"
    },
    {
      "constant": true,
      "inputs": [
        {
          "name": "owner",
          "type": "address"
        },
        {
          "name": "operator",
          "type": "address"
        }
      ],
      "name": "isApprovedForAll",
      "outputs": [
        {
          "name": "",
          "type": "bool"
        }
      ],
      "payable": false,
      "stateMutability": "view",
      "type": "function"
    },
    {
      "inputs": [],
      "payable": false,
      "stateMutability": "nonpayable",
      "type": "constructor"
    },
    {
      "anonymous": false,
      "inputs": [
        {
          "indexed": false,
          "name": "owner",
          "type": "address"
        },
        {
          "indexed": false,
          "name": "tokenId",
          "type": "uint256"
        }
      ],
      "name": "starClaimed",
      "type": "event"
    },
    {
      "anonymous": false,
      "inputs": [
        {
          "indexed": false,
          "name": "name",
          "type": "string"
        },
        {
          "indexed": false,
          "name": "story",
          "type": "string"
        },
        {
          "indexed": false,
          "name": "dec",
          "type": "string"
        },
        {
          "indexed": false,
          "name": "ra",
          "type": "string"
        },
        {
          "indexed": false,
          "name": "cent",
          "type": "string"
        },
        {
          "indexed": false,
          "name": "mag",
          "type": "string"
        }
      ],
      "name": "starLookupResult",
      "type": "event"
    },
    {
      "anonymous": false,
      "inputs": [
        {
          "indexed": false,
          "name": "allStars",
          "type": "uint256[]"
        }
      ],
      "name": "starCollectionEvent",
      "type": "event"
    },
    {
      "anonymous": false,
      "inputs": [
        {
          "indexed": false,
          "name": "starExists",
          "type": "bool"
        }
      ],
      "name": "checkIfStarExistsResult",
      "type": "event"
    },
    {
      "anonymous": false,
      "inputs": [
        {
          "indexed": true,
          "name": "from",
          "type": "address"
        },
        {
          "indexed": true,
          "name": "to",
          "type": "address"
        },
        {
          "indexed": true,
          "name": "tokenId",
          "type": "uint256"
        }
      ],
      "name": "Transfer",
      "type": "event"
    },
    {
      "anonymous": false,
      "inputs": [
        {
          "indexed": true,
          "name": "owner",
          "type": "address"
        },
        {
          "indexed": true,
          "name": "approved",
          "type": "address"
        },
        {
          "indexed": true,
          "name": "tokenId",
          "type": "uint256"
        }
      ],
      "name": "Approval",
      "type": "event"
    },
    {
      "anonymous": false,
      "inputs": [
        {
          "indexed": true,
          "name": "owner",
          "type": "address"
        },
        {
          "indexed": true,
          "name": "operator",
          "type": "address"
        },
        {
          "indexed": false,
          "name": "approved",
          "type": "bool"
        }
      ],
      "name": "ApprovalForAll",
      "type": "event"
    },
    {
      "constant": false,
      "inputs": [
        {
          "name": "_name",
          "type": "string"
        },
        {
          "name": "_story",
          "type": "string"
        },
        {
          "name": "_dec",
          "type": "string"
        },
        {
          "name": "_ra",
          "type": "string"
        },
        {
          "name": "_cent",
          "type": "string"
        },
        {
          "name": "_mag",
          "type": "string"
        }
      ],
      "name": "createStar",
      "outputs": [],
      "payable": false,
      "stateMutability": "nonpayable",
      "type": "function"
    },
    {
      "constant": true,
      "inputs": [],
      "name": "getStars",
      "outputs": [
        {
          "name": "",
          "type": "uint256[]"
        }
      ],
      "payable": false,
      "stateMutability": "view",
      "type": "function"
    },
    {
      "constant": true,
      "inputs": [],
      "name": "getStarCount",
      "outputs": [
        {
          "name": "",
          "type": "uint256"
        }
      ],
      "payable": false,
      "stateMutability": "view",
      "type": "function"
    },
    {
      "constant": true,
      "inputs": [
        {
          "name": "_dec",
          "type": "string"
        },
        {
          "name": "_ra",
          "type": "string"
        },
        {
          "name": "_cent",
          "type": "string"
        }
      ],
      "name": "checkIfStarExists",
      "outputs": [
        {
          "name": "",
          "type": "bool"
        }
      ],
      "payable": false,
      "stateMutability": "view",
      "type": "function"
    },
    {
      "constant": true,
      "inputs": [
        {
          "name": "_dec",
          "type": "string"
        },
        {
          "name": "_ra",
          "type": "string"
        },
        {
          "name": "_cent",
          "type": "string"
        }
      ],
      "name": "getStarInfo",
      "outputs": [],
      "payable": false,
      "stateMutability": "view",
      "type": "function"
    },
    {
      "constant": false,
      "inputs": [
        {
          "name": "_tokenId",
          "type": "uint256"
        },
        {
          "name": "_price",
          "type": "uint256"
        }
      ],
      "name": "putStarUpForSale",
      "outputs": [],
      "payable": false,
      "stateMutability": "nonpayable",
      "type": "function"
    },
    {
      "constant": false,
      "inputs": [
        {
          "name": "_tokenId",
          "type": "uint256"
        }
      ],
      "name": "claimStar",
      "outputs": [],
      "payable": true,
      "stateMutability": "payable",
      "type": "function"
    },
    {
      "constant": true,
      "inputs": [],
      "name": "starName",
      "outputs": [
        {
          "name": "",
          "type": "string"
        }
      ],
      "payable": false,
      "stateMutability": "view",
      "type": "function"
    },
    {
      "constant": true,
      "inputs": [],
      "name": "starOwner",
      "outputs": [
        {
          "name": "",
          "type": "address"
        }
      ],
      "payable": false,
      "stateMutability": "view",
      "type": "function"
    },
    {
      "constant": false,
      "inputs": [
        {
          "name": "_tokenId",
          "type": "uint256"
        }
      ],
      "name": "buyStar",
      "outputs": [],
      "payable": true,
      "stateMutability": "payable",
      "type": "function"
    },
    {
      "constant": true,
      "inputs": [
        {
          "name": "_dec",
          "type": "string"
        },
        {
          "name": "_ra",
          "type": "string"
        },
        {
          "name": "_cent",
          "type": "string"
        }
      ],
      "name": "getStarHash",
      "outputs": [
        {
          "name": "",
          "type": "bytes32"
        }
      ],
      "payable": false,
      "stateMutability": "pure",
      "type": "function"
    },
    {
      "constant": true,
      "inputs": [
        {
          "name": "",
          "type": "uint256"
        }
      ],
      "name": "starsForSale",
      "outputs": [
        {
          "name": "",
          "type": "uint256"
        }
      ],
      "payable": false,
      "stateMutability": "view",
      "type": "function"
    },
    {
      "constant": true,
      "inputs": [],
      "name": "starsForSale",
      "outputs": [
        {
          "name": "",
          "type": "uint256[]"
        }
      ],
      "payable": false,
      "stateMutability": "view",
      "type": "function"
    }
  ],
  "bytecode": "0x60806040523480156200001157600080fd5b506200004f6301ffc9a77c010000000000000000000000000000000000000000000000000000000002620000e0640100000000026401000000009004565b6200008c6380ac58cd7c010000000000000000000000000000000000000000000000000000000002620000e0640100000000026401000000009004565b6040805190810160405280601481526020017f417765736f6d652055646163697479205374617200000000000000000000000081525060059080519060200190620000d99291906200019e565b506200024d565b63ffffffff7c010000000000000000000000000000000000000000000000000000000002817bffffffffffffffffffffffffffffffffffffffffffffffffffffffff1916141515156200013257600080fd5b6001600080837bffffffffffffffffffffffffffffffffffffffffffffffffffffffff19167bffffffffffffffffffffffffffffffffffffffffffffffffffffffff1916815260200190815260200160002060006101000a81548160ff02191690831515021790555050565b828054600181600116156101000203166002900490600052602060002090601f016020900481019282601f10620001e157805160ff191683800117855562000212565b8280016001018555821562000212579182015b8281111562000211578251825591602001919060010190620001f4565b5b50905062000221919062000225565b5090565b6200024a91905b80821115620002465760008160009055506001016200022c565b5090565b90565b6144e0806200025d6000396000f300608060405260043610610154576000357c0100000000000000000000000000000000000000000000000000000000900463ffffffff16806301ffc9a7146101595780630564b130146101bd578063081812fc146101fe578063095ea7b31461026b5780631967fd98146102b857806323b872dd1461057a5780632946825e146105e75780632b6e25f5146106125780632f1c34ef1461071f57806330f866221461073f578063316a436114610850578063356175171461088757806342842e0e14610b4d578063613883e314610bba5780636352211e14610c265780636c27b90414610c9357806370a0823114610cd457806388d5896c14610d2b578063a22cb46514610dbb578063a434c27214610e0a578063a67c3f4b14610e61578063a8a4880114610f56578063b3a218491461111d578063b88d4fde14611189578063e985e9c51461123c578063f89c3254146112b7575b600080fd5b34801561016557600080fd5b506101a360048036038101908080357bffffffffffffffffffffffffffffffffffffffffffffffffffffffff191690602001909291905050506112d7565b604051808215151515815260200191505060405180910390f35b3480156101c957600080fd5b506101e86004803603810190808035906020019092919050505061133e565b6040518082815260200191505060405180910390f35b34801561020a57600080fd5b5061022960048036038101908080359060200190929190505050611356565b604051808273ffffffffffffffffffffffffffffffffffffffff1673ffffffffffffffffffffffffffffffffffffffff16815260200191505060405180910390f35b34801561027757600080fd5b506102b6600480360381019080803573ffffffffffffffffffffffffffffffffffffffff169060200190929190803590602001909291905050506113a7565b005b3480156102c457600080fd5b506102e3600480360381019080803590602001909291905050506114ec565b6040518080602001806020018060200180602001806020018060200187810387528d818151815260200191508051906020019080838360005b8381101561033757808201518184015260208101905061031c565b50505050905090810190601f1680156103645780820380516001836020036101000a031916815260200191505b5087810386528c818151815260200191508051906020019080838360005b8381101561039d578082015181840152602081019050610382565b50505050905090810190601f1680156103ca5780820380516001836020036101000a031916815260200191505b5087810385528b818151815260200191508051906020019080838360005b838110156104035780820151818401526020810190506103e8565b50505050905090810190601f1680156104305780820380516001836020036101000a031916815260200191505b5087810384528a818151815260200191508051906020019080838360005b8381101561046957808201518184015260208101905061044e565b50505050905090810190601f1680156104965780820380516001836020036101000a031916815260200191505b50878103835289818151815260200191508051906020019080838360005b838110156104cf5780820151818401526020810190506104b4565b50505050905090810190601f1680156104fc5780820380516001836020036101000a031916815260200191505b50878103825288818151815260200191508051906020019080838360005b8381101561053557808201518184015260208101905061051a565b50505050905090810190601f1680156105625780820380516001836020036101000a031916815260200191505b509c5050505050505050505050505060405180910390f35b34801561058657600080fd5b506105e5600480360381019080803573ffffffffffffffffffffffffffffffffffffffff169060200190929190803573ffffffffffffffffffffffffffffffffffffffff169060200190929190803590602001909291905050506118b8565b005b3480156105f357600080fd5b506105fc611987565b6040518082815260200191505060405180910390f35b34801561061e57600080fd5b50610705600480360381019080803590602001908201803590602001908080601f0160208091040260200160405190810160405280939291908181526020018383808284378201915050505050509192919290803590602001908201803590602001908080601f0160208091040260200160405190810160405280939291908181526020018383808284378201915050505050509192919290803590602001908201803590602001908080601f0160208091040260200160405190810160405280939291908181526020018383808284378201915050505050509192919290505050611994565b604051808215151515815260200191505060405180910390f35b61073d60048036038101908080359060200190929190505050612104565b005b34801561074b57600080fd5b50610832600480360381019080803590602001908201803590602001908080601f0160208091040260200160405190810160405280939291908181526020018383808284378201915050505050509192919290803590602001908201803590602001908080601f0160208091040260200160405190810160405280939291908181526020018383808284378201915050505050509192919290803590602001908201803590602001908080601f016020809104026020016040519081016040528093929190818152602001838380828437820191505050505050919291929050505061232b565b60405180826000191660001916815260200191505060405180910390f35b34801561085c57600080fd5b5061088560048036038101908080359060200190929190803590602001909291905050506124af565b005b34801561089357600080fd5b506108b660048036038101908080356000191690602001909291905050506125ae565b6040518080602001806020018060200180602001806020018060200187810387528d818151815260200191508051906020019080838360005b8381101561090a5780820151818401526020810190506108ef565b50505050905090810190601f1680156109375780820380516001836020036101000a031916815260200191505b5087810386528c818151815260200191508051906020019080838360005b83811015610970578082015181840152602081019050610955565b50505050905090810190601f16801561099d5780820380516001836020036101000a031916815260200191505b5087810385528b818151815260200191508051906020019080838360005b838110156109d65780820151818401526020810190506109bb565b50505050905090810190601f168015610a035780820380516001836020036101000a031916815260200191505b5087810384528a818151815260200191508051906020019080838360005b83811015610a3c578082015181840152602081019050610a21565b50505050905090810190601f168015610a695780820380516001836020036101000a031916815260200191505b50878103835289818151815260200191508051906020019080838360005b83811015610aa2578082015181840152602081019050610a87565b50505050905090810190601f168015610acf5780820380516001836020036101000a031916815260200191505b50878103825288818151815260200191508051906020019080838360005b83811015610b08578082015181840152602081019050610aed565b50505050905090810190601f168015610b355780820380516001836020036101000a031916815260200191505b509c5050505050505050505050505060405180910390f35b348015610b5957600080fd5b50610bb8600480360381019080803573ffffffffffffffffffffffffffffffffffffffff169060200190929190803573ffffffffffffffffffffffffffffffffffffffff1690602001909291908035906020019092919050505061297a565b005b348015610bc657600080fd5b50610bcf61299b565b6040518080602001828103825283818151815260200191508051906020019060200280838360005b83811015610c12578082015181840152602081019050610bf7565b505050509050019250505060405180910390f35b348015610c3257600080fd5b50610c51600480360381019080803590602001909291905050506129f3565b604051808273ffffffffffffffffffffffffffffffffffffffff1673ffffffffffffffffffffffffffffffffffffffff16815260200191505060405180910390f35b348015610c9f57600080fd5b50610cbe60048036038101908080359060200190929190505050612a71565b6040518082815260200191505060405180910390f35b348015610ce057600080fd5b50610d15600480360381019080803573ffffffffffffffffffffffffffffffffffffffff169060200190929190505050612a94565b6040518082815260200191505060405180910390f35b348015610d3757600080fd5b50610d40612b18565b6040518080602001828103825283818151815260200191508051906020019080838360005b83811015610d80578082015181840152602081019050610d65565b50505050905090810190601f168015610dad5780820380516001836020036101000a031916815260200191505b509250505060405180910390f35b348015610dc757600080fd5b50610e08600480360381019080803573ffffffffffffffffffffffffffffffffffffffff169060200190929190803515159060200190929190505050612bba565b005b348015610e1657600080fd5b50610e1f612cf6565b604051808273ffffffffffffffffffffffffffffffffffffffff1673ffffffffffffffffffffffffffffffffffffffff16815260200191505060405180910390f35b348015610e6d57600080fd5b50610f54600480360381019080803590602001908201803590602001908080601f0160208091040260200160405190810160405280939291908181526020018383808284378201915050505050509192919290803590602001908201803590602001908080601f0160208091040260200160405190810160405280939291908181526020018383808284378201915050505050509192919290803590602001908201803590602001908080601f0160208091040260200160405190810160405280939291908181526020018383808284378201915050505050509192919290505050612d20565b005b348015610f6257600080fd5b5061111b600480360381019080803590602001908201803590602001908080601f0160208091040260200160405190810160405280939291908181526020018383808284378201915050505050509192919290803590602001908201803590602001908080601f0160208091040260200160405190810160405280939291908181526020018383808284378201915050505050509192919290803590602001908201803590602001908080601f0160208091040260200160405190810160405280939291908181526020018383808284378201915050505050509192919290803590602001908201803590602001908080601f0160208091040260200160405190810160405280939291908181526020018383808284378201915050505050509192919290803590602001908201803590602001908080601f0160208091040260200160405190810160405280939291908181526020018383808284378201915050505050509192919290803590602001908201803590602001908080601f0160208091040260200160405190810160405280939291908181526020018383808284378201915050505050509192919290505050613122565b005b34801561112957600080fd5b506111326139ef565b6040518080602001828103825283818151815260200191508051906020019060200280838360005b8381101561117557808201518184015260208101905061115a565b505050509050019250505060405180910390f35b34801561119557600080fd5b5061123a600480360381019080803573ffffffffffffffffffffffffffffffffffffffff169060200190929190803573ffffffffffffffffffffffffffffffffffffffff16906020019092919080359060200190929190803590602001908201803590602001908080601f0160208091040260200160405190810160405280939291908181526020018383808284378201915050505050509192919290505050613abd565b005b34801561124857600080fd5b5061129d600480360381019080803573ffffffffffffffffffffffffffffffffffffffff169060200190929190803573ffffffffffffffffffffffffffffffffffffffff169060200190929190505050613ae5565b604051808215151515815260200191505060405180910390f35b6112d560048036038101908080359060200190929190505050613b79565b005b6000806000837bffffffffffffffffffffffffffffffffffffffffffffffffffffffff19167bffffffffffffffffffffffffffffffffffffffffffffffffffffffff1916815260200190815260200160002060009054906101000a900460ff169050919050565b60086020528060005260406000206000915090505481565b600061136182613c28565b151561136c57600080fd5b6002600083815260200190815260200160002060009054906101000a900473ffffffffffffffffffffffffffffffffffffffff169050919050565b60006113b2826129f3565b90508073ffffffffffffffffffffffffffffffffffffffff168373ffffffffffffffffffffffffffffffffffffffff16141515156113ef57600080fd5b8073ffffffffffffffffffffffffffffffffffffffff163373ffffffffffffffffffffffffffffffffffffffff16148061142f575061142e8133613ae5565b5b151561143a57600080fd5b826002600084815260200190815260200160002060006101000a81548173ffffffffffffffffffffffffffffffffffffffff021916908373ffffffffffffffffffffffffffffffffffffffff160217905550818373ffffffffffffffffffffffffffffffffffffffff168273ffffffffffffffffffffffffffffffffffffffff167f8c5be1e5ebec7d5bd14f71427d1e84f3dd0314c0f7b2291e5b200ac8c7c3b92560405160405180910390a4505050565b6007602052806000526040600020600091509050806000018054600181600116156101000203166002900480601f0160208091040260200160405190810160405280929190818152602001828054600181600116156101000203166002900480156115985780601f1061156d57610100808354040283529160200191611598565b820191906000526020600020905b81548152906001019060200180831161157b57829003601f168201915b505050505090806001018054600181600116156101000203166002900480601f0160208091040260200160405190810160405280929190818152602001828054600181600116156101000203166002900480156116365780601f1061160b57610100808354040283529160200191611636565b820191906000526020600020905b81548152906001019060200180831161161957829003601f168201915b505050505090806002018054600181600116156101000203166002900480601f0160208091040260200160405190810160405280929190818152602001828054600181600116156101000203166002900480156116d45780601f106116a9576101008083540402835291602001916116d4565b820191906000526020600020905b8154815290600101906020018083116116b757829003601f168201915b505050505090806003018054600181600116156101000203166002900480601f0160208091040260200160405190810160405280929190818152602001828054600181600116156101000203166002900480156117725780601f1061174757610100808354040283529160200191611772565b820191906000526020600020905b81548152906001019060200180831161175557829003601f168201915b505050505090806004018054600181600116156101000203166002900480601f0160208091040260200160405190810160405280929190818152602001828054600181600116156101000203166002900480156118105780601f106117e557610100808354040283529160200191611810565b820191906000526020600020905b8154815290600101906020018083116117f357829003601f168201915b505050505090806005018054600181600116156101000203166002900480601f0160208091040260200160405190810160405280929190818152602001828054600181600116156101000203166002900480156118ae5780601f10611883576101008083540402835291602001916118ae565b820191906000526020600020905b81548152906001019060200180831161189157829003601f168201915b5050505050905086565b6118c23382613c9a565b15156118cd57600080fd5b600073ffffffffffffffffffffffffffffffffffffffff168273ffffffffffffffffffffffffffffffffffffffff161415151561190957600080fd5b6119138382613d2f565b61191d8382613e32565b6119278282613f61565b808273ffffffffffffffffffffffffffffffffffffffff168473ffffffffffffffffffffffffffffffffffffffff167fddf252ad1be2c89b69c2b068fc378daa952ba7f163c4a11628f55a4df523b3ef60405160405180910390a4505050565b6000600980549050905090565b60008060006119a486868661232b565b6001900491507f4a267e4c5504bc774ae02cbaa03ca95f7b0b5f1bab90ceca8f85f496457e8ffb6007600084815260200190815260200160002060000160076000858152602001908152602001600020600101600760008681526020019081526020016000206002016007600087815260200190815260200160002060030160076000888152602001908152602001600020600401600760008981526020019081526020016000206005016040518080602001806020018060200180602001806020018060200187810387528d818154600181600116156101000203166002900481526020019150805460018160011615610100020316600290048015611aec5780601f10611ac157610100808354040283529160200191611aec565b820191906000526020600020905b815481529060010190602001808311611acf57829003601f168201915b505087810386528c818154600181600116156101000203166002900481526020019150805460018160011615610100020316600290048015611b6f5780601f10611b4457610100808354040283529160200191611b6f565b820191906000526020600020905b815481529060010190602001808311611b5257829003601f168201915b505087810385528b818154600181600116156101000203166002900481526020019150805460018160011615610100020316600290048015611bf25780601f10611bc757610100808354040283529160200191611bf2565b820191906000526020600020905b815481529060010190602001808311611bd557829003601f168201915b505087810384528a818154600181600116156101000203166002900481526020019150805460018160011615610100020316600290048015611c755780601f10611c4a57610100808354040283529160200191611c75565b820191906000526020600020905b815481529060010190602001808311611c5857829003601f168201915b5050878103835289818154600181600116156101000203166002900481526020019150805460018160011615610100020316600290048015611cf85780601f10611ccd57610100808354040283529160200191611cf8565b820191906000526020600020905b815481529060010190602001808311611cdb57829003601f168201915b5050878103825288818154600181600116156101000203166002900481526020019150805460018160011615610100020316600290048015611d7b5780601f10611d5057610100808354040283529160200191611d7b565b820191906000526020600020905b815481529060010190602001808311611d5e57829003601f168201915b50509c5050505050505050505050505060405180910390a160019050604051806000019050604051809103902060001916600760008481526020019081526020016000206002016040516020018082805460018160011615610100020316600290048015611e205780601f10611dfe576101008083540402835291820191611e20565b820191906000526020600020905b815481529060010190602001808311611e0c575b50509150506040516020818303038152906040526040518082805190602001908083835b602083101515611e695780518252602082019150602081019050602083039250611e44565b6001836020036101000a038019825116818451168082178552505050505050905001915050604051809103902060001916148015611fa75750604051806000019050604051809103902060001916600760008481526020019081526020016000206003016040516020018082805460018160011615610100020316600290048015611f2b5780601f10611f09576101008083540402835291820191611f2b565b820191906000526020600020905b815481529060010190602001808311611f17575b50509150506040516020818303038152906040526040518082805190602001908083835b602083101515611f745780518252602082019150602081019050602083039250611f4f565b6001836020036101000a038019825116818451168082178552505050505050905001915050604051809103902060001916145b80156120b357506040518060000190506040518091039020600019166007600084815260200190815260200160002060040160405160200180828054600181600116156101000203166002900480156120375780601f10612015576101008083540402835291820191612037565b820191906000526020600020905b815481529060010190602001808311612023575b50509150506040516020818303038152906040526040518082805190602001908083835b602083101515612080578051825260208201915060208101905060208303925061205b565b6001836020036101000a038019825116818451168082178552505050505050905001915050604051809103902060001916145b156120bd57600090505b7f8fb914207ec0f3f98767111f89c036cdc172fd0320eeba836088e52764f8daa381604051808215151515815260200191505060405180910390a180925050509392505050565b600080600860008481526020019081526020016000205411151561212757600080fd5b600860008381526020019081526020016000205490503073ffffffffffffffffffffffffffffffffffffffff16636352211e836040518263ffffffff167c010000000000000000000000000000000000000000000000000000000002815260040180828152602001915050602060405180830381600087803b1580156121ac57600080fd5b505af11580156121c0573d6000803e3d6000fd5b505050506040513d60208110156121d657600080fd5b8101908080519060200190929190505050600660006101000a81548173ffffffffffffffffffffffffffffffffffffffff021916908373ffffffffffffffffffffffffffffffffffffffff16021790555080341015151561223657600080fd5b612262600660009054906101000a900473ffffffffffffffffffffffffffffffffffffffff1683613e32565b61226c3383613f61565b600660009054906101000a900473ffffffffffffffffffffffffffffffffffffffff1673ffffffffffffffffffffffffffffffffffffffff166108fc829081150290604051600060405180830381858888f193505050501580156122d4573d6000803e3d6000fd5b5080341115612327573373ffffffffffffffffffffffffffffffffffffffff166108fc8234039081150290604051600060405180830381858888f19350505050158015612325573d6000803e3d6000fd5b505b5050565b60008383836040516020018084805190602001908083835b6020831015156123685780518252602082019150602081019050602083039250612343565b6001836020036101000a03801982511681845116808217855250505050505090500183805190602001908083835b6020831015156123bb5780518252602082019150602081019050602083039250612396565b6001836020036101000a03801982511681845116808217855250505050505090500182805190602001908083835b60208310151561240e57805182526020820191506020810190506020830392506123e9565b6001836020036101000a03801982511681845116808217855250505050505090500193505050506040516020818303038152906040526040518082805190602001908083835b6020831015156124795780518252602082019150602081019050602083039250612454565b6001836020036101000a038019825116818451168082178552505050505050905001915050604051809103902090509392505050565b3373ffffffffffffffffffffffffffffffffffffffff163073ffffffffffffffffffffffffffffffffffffffff16636352211e846040518263ffffffff167c010000000000000000000000000000000000000000000000000000000002815260040180828152602001915050602060405180830381600087803b15801561253557600080fd5b505af1158015612549573d6000803e3d6000fd5b505050506040513d602081101561255f57600080fd5b810190808051906020019092919050505073ffffffffffffffffffffffffffffffffffffffff1614151561259257600080fd5b8060086000848152602001908152602001600020819055505050565b600a602052806000526040600020600091509050806000018054600181600116156101000203166002900480601f01602080910402602001604051908101604052809291908181526020018280546001816001161561010002031660029004801561265a5780601f1061262f5761010080835404028352916020019161265a565b820191906000526020600020905b81548152906001019060200180831161263d57829003601f168201915b505050505090806001018054600181600116156101000203166002900480601f0160208091040260200160405190810160405280929190818152602001828054600181600116156101000203166002900480156126f85780601f106126cd576101008083540402835291602001916126f8565b820191906000526020600020905b8154815290600101906020018083116126db57829003601f168201915b505050505090806002018054600181600116156101000203166002900480601f0160208091040260200160405190810160405280929190818152602001828054600181600116156101000203166002900480156127965780601f1061276b57610100808354040283529160200191612796565b820191906000526020600020905b81548152906001019060200180831161277957829003601f168201915b505050505090806003018054600181600116156101000203166002900480601f0160208091040260200160405190810160405280929190818152602001828054600181600116156101000203166002900480156128345780601f1061280957610100808354040283529160200191612834565b820191906000526020600020905b81548152906001019060200180831161281757829003601f168201915b505050505090806004018054600181600116156101000203166002900480601f0160208091040260200160405190810160405280929190818152602001828054600181600116156101000203166002900480156128d25780601f106128a7576101008083540402835291602001916128d2565b820191906000526020600020905b8154815290600101906020018083116128b557829003601f168201915b505050505090806005018054600181600116156101000203166002900480601f0160208091040260200160405190810160405280929190818152602001828054600181600116156101000203166002900480156129705780601f1061294557610100808354040283529160200191612970565b820191906000526020600020905b81548152906001019060200180831161295357829003601f168201915b5050505050905086565b6129968383836020604051908101604052806000815250613abd565b505050565b606060098054806020026020016040519081016040528092919081815260200182805480156129e957602002820191906000526020600020905b8154815260200190600101908083116129d5575b5050505050905090565b6000806001600084815260200190815260200160002060009054906101000a900473ffffffffffffffffffffffffffffffffffffffff169050600073ffffffffffffffffffffffffffffffffffffffff168173ffffffffffffffffffffffffffffffffffffffff1614151515612a6857600080fd5b80915050919050565b600981815481101515612a8057fe5b906000526020600020016000915090505481565b60008073ffffffffffffffffffffffffffffffffffffffff168273ffffffffffffffffffffffffffffffffffffffff1614151515612ad157600080fd5b600360008373ffffffffffffffffffffffffffffffffffffffff1673ffffffffffffffffffffffffffffffffffffffff168152602001908152602001600020549050919050565b606060058054600181600116156101000203166002900480601f016020809104026020016040519081016040528092919081815260200182805460018160011615610100020316600290048015612bb05780601f10612b8557610100808354040283529160200191612bb0565b820191906000526020600020905b815481529060010190602001808311612b9357829003601f168201915b5050505050905090565b3373ffffffffffffffffffffffffffffffffffffffff168273ffffffffffffffffffffffffffffffffffffffff1614151515612bf557600080fd5b80600460003373ffffffffffffffffffffffffffffffffffffffff1673ffffffffffffffffffffffffffffffffffffffff16815260200190815260200160002060008473ffffffffffffffffffffffffffffffffffffffff1673ffffffffffffffffffffffffffffffffffffffff16815260200190815260200160002060006101000a81548160ff0219169083151502179055508173ffffffffffffffffffffffffffffffffffffffff163373ffffffffffffffffffffffffffffffffffffffff167f17307eab39ab6107e8899845ad3d59bd9653f200f220920489ca2b5937696c3183604051808215151515815260200191505060405180910390a35050565b6000600660009054906101000a900473ffffffffffffffffffffffffffffffffffffffff16905090565b6000612d2d84848461232b565b6001900490507f4a267e4c5504bc774ae02cbaa03ca95f7b0b5f1bab90ceca8f85f496457e8ffb6007600083815260200190815260200160002060000160076000848152602001908152602001600020600101600760008581526020019081526020016000206002016007600086815260200190815260200160002060030160076000878152602001908152602001600020600401600760008881526020019081526020016000206005016040518080602001806020018060200180602001806020018060200187810387528d818154600181600116156101000203166002900481526020019150805460018160011615610100020316600290048015612e755780601f10612e4a57610100808354040283529160200191612e75565b820191906000526020600020905b815481529060010190602001808311612e5857829003601f168201915b505087810386528c818154600181600116156101000203166002900481526020019150805460018160011615610100020316600290048015612ef85780601f10612ecd57610100808354040283529160200191612ef8565b820191906000526020600020905b815481529060010190602001808311612edb57829003601f168201915b505087810385528b818154600181600116156101000203166002900481526020019150805460018160011615610100020316600290048015612f7b5780601f10612f5057610100808354040283529160200191612f7b565b820191906000526020600020905b815481529060010190602001808311612f5e57829003601f168201915b505087810384528a818154600181600116156101000203166002900481526020019150805460018160011615610100020316600290048015612ffe5780601f10612fd357610100808354040283529160200191612ffe565b820191906000526020600020905b815481529060010190602001808311612fe157829003601f168201915b50508781038352898181546001816001161561010002031660029004815260200191508054600181600116156101000203166002900480156130815780601f1061305657610100808354040283529160200191613081565b820191906000526020600020905b81548152906001019060200180831161306457829003601f168201915b50508781038252888181546001816001161561010002031660029004815260200191508054600181600116156101000203166002900480156131045780601f106130d957610100808354040283529160200191613104565b820191906000526020600020905b8154815290600101906020018083116130e757829003601f168201915b50509c5050505050505050505050505060405180910390a150505050565b600061312c6143d8565b600088511115156131a5576040517f08c379a000000000000000000000000000000000000000000000000000000000815260040180806020018281038252601e8152602001807f526571756972656420506172616d657465723a2053746172204e616d652e000081525060200191505060405180910390fd5b6000875111151561321e576040517f08c379a000000000000000000000000000000000000000000000000000000000815260040180806020018281038252601f8152602001807f526571756972656420506172616d657465723a20537461722053746f72792e0081525060200191505060405180910390fd5b60008651111515613297576040517f08c379a000000000000000000000000000000000000000000000000000000000815260040180806020018281038252601d8152602001807f526571756972656420506172616d657465723a2053746172206465632000000081525060200191505060405180910390fd5b60008551111515613310576040517f08c379a000000000000000000000000000000000000000000000000000000000815260040180806020018281038252601c8152602001807f526571756972656420506172616d657465723a2053746172207261200000000081525060200191505060405180910390fd5b60008451111515613389576040517f08c379a000000000000000000000000000000000000000000000000000000000815260040180806020018281038252601e8152602001807f526571756972656420506172616d657465723a20537461722063656e7420000081525060200191505060405180910390fd5b60008351111515613402576040517f08c379a000000000000000000000000000000000000000000000000000000000815260040180806020018281038252601d8152602001807f526571756972656420506172616d657465723a2053746172206d61672000000081525060200191505060405180910390fd5b61340d868686611994565b1515613481576040517f08c379a00000000000000000000000000000000000000000000000000000000081526004018080602001828103825260148152602001807f5374617220616c7265616479206578697374732e00000000000000000000000081525060200191505060405180910390fd5b61348c86868661232b565b60019004915060c060405190810160405280898152602001888152602001878152602001868152602001858152602001848152509050806007600084815260200190815260200160002060008201518160000190805190602001906134f292919061440f565b50602082015181600101908051906020019061350f92919061440f565b50604082015181600201908051906020019061352c92919061440f565b50606082015181600301908051906020019061354992919061440f565b50608082015181600401908051906020019061356692919061440f565b5060a082015181600501908051906020019061358392919061440f565b509050507f4a267e4c5504bc774ae02cbaa03ca95f7b0b5f1bab90ceca8f85f496457e8ffb6007600084815260200190815260200160002060000160076000858152602001908152602001600020600101600760008681526020019081526020016000206002016007600087815260200190815260200160002060030160076000888152602001908152602001600020600401600760008981526020019081526020016000206005016040518080602001806020018060200180602001806020018060200187810387528d8181546001816001161561010002031660029004815260200191508054600181600116156101000203166002900480156136c95780601f1061369e576101008083540402835291602001916136c9565b820191906000526020600020905b8154815290600101906020018083116136ac57829003601f168201915b505087810386528c81815460018160011615610100020316600290048152602001915080546001816001161561010002031660029004801561374c5780601f106137215761010080835404028352916020019161374c565b820191906000526020600020905b81548152906001019060200180831161372f57829003601f168201915b505087810385528b8181546001816001161561010002031660029004815260200191508054600181600116156101000203166002900480156137cf5780601f106137a4576101008083540402835291602001916137cf565b820191906000526020600020905b8154815290600101906020018083116137b257829003601f168201915b505087810384528a8181546001816001161561010002031660029004815260200191508054600181600116156101000203166002900480156138525780601f1061382757610100808354040283529160200191613852565b820191906000526020600020905b81548152906001019060200180831161383557829003601f168201915b50508781038352898181546001816001161561010002031660029004815260200191508054600181600116156101000203166002900480156138d55780601f106138aa576101008083540402835291602001916138d5565b820191906000526020600020905b8154815290600101906020018083116138b857829003601f168201915b50508781038252888181546001816001161561010002031660029004815260200191508054600181600116156101000203166002900480156139585780601f1061392d57610100808354040283529160200191613958565b820191906000526020600020905b81548152906001019060200180831161393b57829003601f168201915b50509c5050505050505050505050505060405180910390a161397a33836140bb565b7f8322dea64034fda94c6d4e9ebfd83b80eef811aa6412c0cfa433a584225d64513383604051808373ffffffffffffffffffffffffffffffffffffffff1673ffffffffffffffffffffffffffffffffffffffff1681526020018281526020019250505060405180910390a15050505050505050565b60607f674318f3ec8fee805e32627486e5063b6d893288b9698d0ee6956593f9e2c2b1600960405180806020018281038252838181548152602001915080548015613a5957602002820191906000526020600020905b815481526020019060010190808311613a45575b50509250505060405180910390a16009805480602002602001604051908101604052809291908181526020018280548015613ab357602002820191906000526020600020905b815481526020019060010190808311613a9f575b5050505050905090565b613ac88484846118b8565b613ad484848484614161565b1515613adf57600080fd5b50505050565b6000600460008473ffffffffffffffffffffffffffffffffffffffff1673ffffffffffffffffffffffffffffffffffffffff16815260200190815260200160002060008373ffffffffffffffffffffffffffffffffffffffff1673ffffffffffffffffffffffffffffffffffffffff16815260200190815260200160002060009054906101000a900460ff16905092915050565b33600660006101000a81548173ffffffffffffffffffffffffffffffffffffffff021916908373ffffffffffffffffffffffffffffffffffffffff1602179055507f8322dea64034fda94c6d4e9ebfd83b80eef811aa6412c0cfa433a584225d64513382604051808373ffffffffffffffffffffffffffffffffffffffff1673ffffffffffffffffffffffffffffffffffffffff1681526020018281526020019250505060405180910390a150565b6000806001600084815260200190815260200160002060009054906101000a900473ffffffffffffffffffffffffffffffffffffffff169050600073ffffffffffffffffffffffffffffffffffffffff168173ffffffffffffffffffffffffffffffffffffffff161415915050919050565b600080613ca6836129f3565b90508073ffffffffffffffffffffffffffffffffffffffff168473ffffffffffffffffffffffffffffffffffffffff161480613d1557508373ffffffffffffffffffffffffffffffffffffffff16613cfd84611356565b73ffffffffffffffffffffffffffffffffffffffff16145b80613d265750613d258185613ae5565b5b91505092915050565b8173ffffffffffffffffffffffffffffffffffffffff16613d4f826129f3565b73ffffffffffffffffffffffffffffffffffffffff16141515613d7157600080fd5b600073ffffffffffffffffffffffffffffffffffffffff166002600083815260200190815260200160002060009054906101000a900473ffffffffffffffffffffffffffffffffffffffff1673ffffffffffffffffffffffffffffffffffffffff16141515613e2e5760006002600083815260200190815260200160002060006101000a81548173ffffffffffffffffffffffffffffffffffffffff021916908373ffffffffffffffffffffffffffffffffffffffff1602179055505b5050565b8173ffffffffffffffffffffffffffffffffffffffff16613e52826129f3565b73ffffffffffffffffffffffffffffffffffffffff16141515613e7457600080fd5b613ec76001600360008573ffffffffffffffffffffffffffffffffffffffff1673ffffffffffffffffffffffffffffffffffffffff1681526020019081526020016000205461438390919063ffffffff16565b600360008473ffffffffffffffffffffffffffffffffffffffff1673ffffffffffffffffffffffffffffffffffffffff1681526020019081526020016000208190555060006001600083815260200190815260200160002060006101000a81548173ffffffffffffffffffffffffffffffffffffffff021916908373ffffffffffffffffffffffffffffffffffffffff1602179055505050565b600073ffffffffffffffffffffffffffffffffffffffff166001600083815260200190815260200160002060009054906101000a900473ffffffffffffffffffffffffffffffffffffffff1673ffffffffffffffffffffffffffffffffffffffff16141515613fcf57600080fd5b816001600083815260200190815260200160002060006101000a81548173ffffffffffffffffffffffffffffffffffffffff021916908373ffffffffffffffffffffffffffffffffffffffff1602179055506140746001600360008573ffffffffffffffffffffffffffffffffffffffff1673ffffffffffffffffffffffffffffffffffffffff168152602001908152602001600020546143a490919063ffffffff16565b600360008473ffffffffffffffffffffffffffffffffffffffff1673ffffffffffffffffffffffffffffffffffffffff168152602001908152602001600020819055505050565b600073ffffffffffffffffffffffffffffffffffffffff168273ffffffffffffffffffffffffffffffffffffffff16141515156140f757600080fd5b6141018282613f61565b808273ffffffffffffffffffffffffffffffffffffffff16600073ffffffffffffffffffffffffffffffffffffffff167fddf252ad1be2c89b69c2b068fc378daa952ba7f163c4a11628f55a4df523b3ef60405160405180910390a45050565b6000806141838573ffffffffffffffffffffffffffffffffffffffff166143c5565b1515614192576001915061437a565b8473ffffffffffffffffffffffffffffffffffffffff1663150b7a02338887876040518563ffffffff167c0100000000000000000000000000000000000000000000000000000000028152600401808573ffffffffffffffffffffffffffffffffffffffff1673ffffffffffffffffffffffffffffffffffffffff1681526020018473ffffffffffffffffffffffffffffffffffffffff1673ffffffffffffffffffffffffffffffffffffffff16815260200183815260200180602001828103825283818151815260200191508051906020019080838360005b8381101561428757808201518184015260208101905061426c565b50505050905090810190601f1680156142b45780820380516001836020036101000a031916815260200191505b5095505050505050602060405180830381600087803b1580156142d657600080fd5b505af11580156142ea573d6000803e3d6000fd5b505050506040513d602081101561430057600080fd5b8101908080519060200190929190505050905063150b7a027c0100000000000000000000000000000000000000000000000000000000027bffffffffffffffffffffffffffffffffffffffffffffffffffffffff1916817bffffffffffffffffffffffffffffffffffffffffffffffffffffffff19161491505b50949350505050565b60008083831115151561439557600080fd5b82840390508091505092915050565b60008082840190508381101515156143bb57600080fd5b8091505092915050565b600080823b905060008111915050919050565b60c0604051908101604052806060815260200160608152602001606081526020016060815260200160608152602001606081525090565b828054600181600116156101000203166002900490600052602060002090601f016020900481019282601f1061445057805160ff191683800117855561447e565b8280016001018555821561447e579182015b8281111561447d578251825591602001919060010190614462565b5b50905061448b919061448f565b5090565b6144b191905b808211156144ad576000816000905550600101614495565b5090565b905600a165627a7a723058203313ed25f24a54fa5ebe53f38c19b13f465a8d798e2f070c4655552fbe3c707a0029",
  "source": "pragma solidity ^0.4.23;\r\n\r\nimport 'openzeppelin-solidity/contracts/token/ERC721/ERC721.sol';\r\n\r\n\r\ncontract StarNotary is ERC721 { \r\n    string public starName; \r\n    address public starOwner;\r\n\r\n    event starClaimed(address owner, uint256 tokenId);\r\n    event starLookupResult(string name, string story, string dec, string ra, string cent, string mag);\r\n    event starCollectionEvent(uint256[] allStars);\r\n    event checkIfStarExistsResult(bool starExists);\r\n    \r\n\r\n    constructor() public { \r\n        starName = \"Awesome Udacity Star\";\r\n    }\r\n\r\n\r\n    struct Star { \r\n        string name; \r\n        string story;\r\n        string dec;\r\n        string ra;\r\n        string cent;\r\n        string mag; \r\n    }\r\n\r\n    mapping(uint256 => Star) public tokenIdToStarInfo; \r\n    mapping(uint256 => uint256) public starsForSale;\r\n\r\n    //mapping(uint256 => Star) public Stars;\r\n    uint256[] public starCollection;\r\n    \r\n    // Create a mapping of the hash of the 3 star parameters to the star object\r\n    mapping(bytes32 => Star) public sfdsdfs; //sfdsdfs[key is coordinate hash]\r\n\r\n    // function createStar(string _name, uint256 _tokenId) public { \r\n    //     Star memory newStar = Star(_name);\r\n\r\n    //     tokenIdToStarInfo[_tokenId] = newStar;\r\n\r\n    //     _mint(msg.sender, _tokenId);\r\n    // }\r\n    function createStar(string _name, string _story, string _dec, string _ra, string _cent, string _mag) public { \r\n        require(bytes(_name).length > 0, \"Required Parameter: Star Name.\");\r\n        require(bytes(_story).length > 0, \"Required Parameter: Star Story.\");\r\n        require(bytes(_dec).length > 0, \"Required Parameter: Star dec \");\r\n        require(bytes(_ra).length > 0, \"Required Parameter: Star ra \");\r\n        require(bytes(_cent).length > 0, \"Required Parameter: Star cent \");\r\n        require(bytes(_mag).length > 0, \"Required Parameter: Star mag \");   \r\n        require(checkIfStarExists(_dec, _ra, _cent), \"Star already exists.\");   \r\n\r\n        uint256 _tokenId = uint256(getStarHash(_dec, _ra, _cent));\r\n        Star memory newStar = Star(_name, _story, _dec, _ra, _cent, _mag);\r\n        \r\n        tokenIdToStarInfo[_tokenId] = newStar;\r\n\r\n        emit starLookupResult(tokenIdToStarInfo[_tokenId].name, tokenIdToStarInfo[_tokenId].story, tokenIdToStarInfo[_tokenId].dec, tokenIdToStarInfo[_tokenId].ra, tokenIdToStarInfo[_tokenId].cent, tokenIdToStarInfo[_tokenId].mag);\r\n\r\n        _mint(msg.sender, _tokenId);\r\n        emit starClaimed(msg.sender, _tokenId);        \r\n    }  \r\n\r\n    function getStars() view public returns (uint256[]) {\r\n        emit starCollectionEvent(starCollection);\r\n        return starCollection;\r\n\r\n    }\r\n\r\n    // function getStar(uint256 _tokenID) view public returns (string, string, string, string, string) {\r\n    //     return (Stars[_tokenID].name, Stars[_tokenID].story, Stars[_tokenID].dec, Stars[_tokenID].mag, Stars[_tokenID].cent);\r\n    // }  \r\n    // function getStar(uint256 _tokenID) view public returns (string, string, string, string, string) {\r\n    //     return (Stars[_tokenID]);\r\n    // }         \r\n\r\n    function getStarCount() view public returns (uint) {\r\n        return starCollection.length;\r\n    }    \r\n\r\n    function checkIfStarExists(string _dec, string _ra, string _cent) view public returns (bool){\r\n\r\n        uint256 _tokenId = uint256(getStarHash(_dec, _ra, _cent));\r\n        emit starLookupResult(tokenIdToStarInfo[_tokenId].name, tokenIdToStarInfo[_tokenId].story, tokenIdToStarInfo[_tokenId].dec, tokenIdToStarInfo[_tokenId].ra, tokenIdToStarInfo[_tokenId].cent, tokenIdToStarInfo[_tokenId].mag);\r\n\r\n        bool starExists = true;\r\n\r\n        if ((keccak256(abi.encodePacked(tokenIdToStarInfo[_tokenId].dec)) == keccak256(\"\")) && \r\n            (keccak256(abi.encodePacked(tokenIdToStarInfo[_tokenId].ra)) == keccak256(\"\")) &&\r\n            (keccak256(abi.encodePacked(tokenIdToStarInfo[_tokenId].cent)) == keccak256(\"\")))\r\n        starExists = false;\r\n\r\n \r\n        emit checkIfStarExistsResult(starExists);\r\n        return (starExists);\r\n    }\r\n\r\n\r\n\r\n    function getStarInfo(string _dec, string _ra, string _cent) view public {\r\n\r\n        uint256 _tokenId = uint256(getStarHash(_dec, _ra, _cent));\r\n        emit starLookupResult(tokenIdToStarInfo[_tokenId].name, tokenIdToStarInfo[_tokenId].story, tokenIdToStarInfo[_tokenId].dec, tokenIdToStarInfo[_tokenId].ra, tokenIdToStarInfo[_tokenId].cent, tokenIdToStarInfo[_tokenId].mag);\r\n        return;\r\n    }\r\n\r\n\r\n\r\n    function putStarUpForSale(uint256 _tokenId, uint256 _price) public { \r\n        require(this.ownerOf(_tokenId) == msg.sender);\r\n        starsForSale[_tokenId] = _price;\r\n    } \r\n\r\n    function claimStar(uint256 _tokenId) public payable { \r\n        //TODO Use _tokenId\r\n        starOwner = msg.sender;\r\n        //emit starClaimed(msg.sender);\r\n        emit starClaimed(msg.sender, _tokenId); \r\n    }\r\n\r\n\r\n    function starName() public view returns(string) { \r\n        return starName;\r\n    }    \r\n\r\n    function starOwner() public view returns(address) { \r\n        return starOwner;\r\n    }     \r\n\r\n\r\n    function buyStar(uint256 _tokenId) public payable { \r\n        require(starsForSale[_tokenId] > 0);\r\n\r\n        uint256 starCost = starsForSale[_tokenId];\r\n        //address starOwner = this.ownerOf(_tokenId);\r\n        starOwner = this.ownerOf(_tokenId);\r\n        require(msg.value >= starCost);\r\n\r\n        _removeTokenFrom(starOwner, _tokenId);\r\n        _addTokenTo(msg.sender, _tokenId);\r\n\r\n        starOwner.transfer(starCost);\r\n\r\n        if(msg.value > starCost) { \r\n            msg.sender.transfer(msg.value - starCost);\r\n        }\r\n    }\r\n\r\n    function getStarHash(string _dec, string _ra, string _cent) public pure returns (bytes32) {\r\n        return keccak256(abi.encodePacked(_dec, _ra, _cent));\r\n    }     \r\n\r\n    function starsForSale() public view returns (uint256[]) {\r\n        return starCollection;\r\n    }\r\n\r\n}",
  "sourcePath": "C:\\Users\\mmaslar\\Desktop\\Blockchain\\Project5_DApp\\smart_contracts\\contracts\\StarNotary.sol",
  "compiler": {
    "name": "solc",
    "version": "0.4.24+commit.e67f0147.Emscripten.clang"
  },
  "schemaVersion": "2.0.1",
  "updatedAt": "2018-11-16T19:07:16.734Z"
}